:10000000009900205D780000A99602001578000094
:100010001578000015780000157800000000000039
:10002000000000000000000000000000AD650000BE
:100030001578000000000000416500001578000000
:100040008D660000D9AA01008D6600008D66000053
:100050008D6600008D6600008D6600008D660000D4
:100060008D6600008D6600008D6600008D660000C4
:100070008D6600008D6600008D6600008D660000B4
:100080008D6600008D6600008D6600008D660000A4
:100090008D6600008D6600008D6600008D66000094
:1000A0008D6600008D6600008D6600008D66000084
:1000B0008D6600008D6600008D6600008D66000074
:1000C0008D6600008D6600008D6600008D66000064
:1000D0008D6600008D6600008D6600008D66000054
:1000E0008D6600008D6600008D6600008D66000044
:1000F0008D6600008D6600008D6600008D66000034
:1001000053B94AB9002908BF00281CBF4FF0FF317E
:100110004FF0FF3000F00CB8ADF1080C6DE904CEE3
:1001200000F008F8DDF804E0DDE9022304B07047D0
:10013000704700BF2DE9F04786468C460846089E6A
:10014000154674461946002B40F0C2808542B2FA2B
:1001500082F245D94AB1C2F1200300FA02FC2EFA1C
:1001600003F3954043EA0C0C94404FEA154EA8B2B5
:10017000BCFBFEF8230C0EFB18CC08FB00F943EA8D
:100180000C43994528D9EB1808F1FF3704D299455B
:1001900002D9A8F102072B44A3EB0903A4B2B3FBD5
:1001A000FEFC0EFB1C330CFB00F044EA0344A042AF
:1001B00014D92C190CF1FF3304D2A04202D9ACF1AE
:1001C00002032C44241A43EA07401EB1D440002302
:1001D00034607360BDE8F0874746DDE76346F1E7CA
:1001E00092BB431B01214FEA154EAFB2B3FBFEFC9D
:1001F000200C0EFB1C330CFB07F840EA0343984528
:1002000062D9EB180CF1FF3004D2984502D9ACF159
:1002100002002B44A3EB0803A4B2B3FBFEFC0EFBCD
:100220001C330CFB07F744EA0344A7424ED92C19B0
:100230000CF1FF3304D2A74202D9ACF102032C44E3
:10024000E41B43EA0040C0E7C2F1200320FA03F1B7
:10025000954090402EFA03F303434FEA154EAFB298
:10026000B1FBFEFC0EFB1C10190C0CFB07F841EA5D
:100270000041884504FA02F422D969180CF1FF30D4
:1002800004D2884502D9ACF102002944A1EB08014F
:100290009BB2B1FBFEFC0EFB1C110CFB07F743EA03
:1002A00001439F420ED9EB180CF1FF3104D29F425B
:1002B00002D9ACF102012B44DB1B41EA004192E779
:1002C0006046E3E76146F7E76046A3E76346B7E7C2
:1002D000834206D916B9002108467BE7C6E900E04B
:1002E000F9E7B3FA83F78FB9834201D3724508D88F
:1002F000BEEB020460EB030301209C461EB9002103
:1003000068E73846FAE7C6E9004CF8E7C7F1200C81
:10031000BB4022FA0CF41C432EFA0CF120FA0CF329
:10032000B84001434FEA14490EFA07F5B3FBF9F858
:100330001FFA84FE09FB18300B0C08FB0EFA43EA87
:1003400000439A4502FA07F240D9E31808F1FF305A
:1003500004D29A4502D9A8F102002344A3EB0A0370
:1003600089B2B3FBF9F809FB183308FB0EFE41EA2A
:1003700003418E452CD9611808F1FF3304D28E4514
:1003800002D9A8F10203214443EA0040A0FB0298ED
:10039000A1EB0E014145CE46434602D306D14D4561
:1003A00004D2B9EB020E68EB04030138002EA6D08C
:1003B000B5EB0E0261EB030101FA0CFC22FA07F324
:1003C0004CEA0303F940C6E9003198E74046C5E727
:1003D0004346D9E7000000002DE9F843D0E90C3589
:1003E000D0F82C805C193034A0450F46164619D839
:1003F0001D4DA3FB05011AA3D3E90023FFF780FEDF
:100400000346A4EB0800A0FB050123F07F4414A3DE
:10041000D3E90023FFF774FE20F07F403C6030609A
:10042000BDE8F883DFF840900DA3D3E90023A8FBD3
:100430000901FFF765FE044605F1300008A3D3E982
:100440000023A0FB0901FFF75BFE24F07F4420F0AE
:100450007F403C603060BDE8F88300BFAFF30080B0
:100460008D49FD1A0700000000CA9A3B00000000F9
:10047000002800F033812DE9F04FC54C94F86A3024
:10048000DA078DB000F1648194F8292094F83530B2
:1004900004EB820204EB8303D66AD3F838800EB3F0
:1004A000354615F8020BC0F3801011F035FC06221A
:1004B0000146284629F09EF933785B0606D50621C9
:1004C000284610F017FA002800F04481454615F838
:1004D000020BC0F3801011F01FFC062201462846D3
:1004E00029F088F9337813F00E0F40F08F80236ADB
:1004F0001BB10C200DB0BDE8F08F13F081FC8146DC
:10050000002800F0358113F087FC8246002800F0B7
:100510002C8115F087F80546002800F02B81D0F8D3
:1005200088004FF6FF732B8505F11C0B002800F0A7
:10053000178105F17C0205F1780110F0E7F9B5F8B3
:10054000763023F4EF6323F0070343F4887343F01A
:100550000103A5F8763095F8393003F03F0363F0D6
:100560007F0385F8393095F88E3023F0070385F83E
:100570008E3095F83C3023F00703002785F83C3097
:100580004FF4C023C5F880312846C5E91277C5F875
:100590008870A5F88C706F86C5F82E7085F83B7052
:1005A0002F65A5F88671A5F87C7117F069FA85F8B2
:1005B0004871C5F84C9115F0BFFA95F88C3160F38D
:1005C000020385F88C3115F0BDFA95F88C3160F393
:1005D000C50385F88C3195F8783167F3410385F8C8
:1005E00078310121284615F0F1FF05F1D40017F00C
:1005F00031F8C4E9189AC4F820B0C5E905772F701E
:10060000ED611AF0EDFF002840F0A68094F8243048
:100610000121C3F342030DF12B008DF82B3010F0B4
:10062000FFFA024600285BD098F80110304614F01B
:1006300007FB5849B4F8687000253123A360C4E96A
:10064000055551A3D3E9002325706560E560A0FB43
:100650000101FFF755FD206111F034FB00F109089D
:100660003FB9357805F00F05A5F10105B5FA85F517
:100670006D0994F82400236965F3000010F001056A
:1006800084F8240033D00020434A444F04930225C9
:100690000BAE019305920321CDE902000896069462
:1006A0004346009007972A460B9511F0F9F9314619
:1006B00013F046FCA0B93A4905914AF2D8330093A9
:1006C000CDE90300CDE9010007970896069443465B
:1006D000012203210B9511F0E3F92EE014F002BA88
:1006E000236A002B3FF405AF14F0BAF901E72D4A55
:1006F0002D48049303F24713069402959121136049
:10070000A7FB000301FB0731244B0793224B059302
:100710004FF6FF730992022703930BAE1AA3D3E996
:1007200000230B970896FFF7EBFC4346CDE90050FA
:100730003A462846032111F05DF9314613F000FCDA
:100740000028CDD194F86A3043F0010384F86A3070
:100750000020CFE61220CDE614F082F90320C9E68E
:1007600005F18000C5F88800E3E6484613F04EFB2B
:100770000720BFE6504613F055FB484613F046FBF2
:10078000F6E700BFAFF300808D49FD1A07000000B7
:10079000D82B002000CA9A3BBD4C01002D3501002A
:1007A00009480100CC2B0020002AE784000000004B
:1007B00070B590F824308AB0C3F342030D46044666
:1007C00001210DF1230016468DF8233010F028FA90
:1007D00071780246284614F033FA1D491AA3D3E96A
:1007E0000023A0FB0101FFF78BFC2369984205461B
:1007F00022D21B1A00220192164A02930221164BA2
:100800000991A21ACA40A3FB0232D20800230A446B
:1008100009AE12490591CDE903330321D2B2069600
:100820000093184611F0B0F9314613F089FB38B93E
:10083000256100200AB070BDFBD9C21A0023DAE797
:100840000C200AB070BD00BF8D49FD1A07000000E2
:1008500000CA9A3BD82B0020F712DA4B2D35010045
:100860002DE9F04F05468BB08B46012002219A46B8
:1008700014461CF0AFFD002202218146012010F039
:1008800095F839494FF4CC72284610F01FF8C61C71
:10089000F6B2364B009532460121002011F08CF95A
:1008A00030F002030CD0324A3249334841F61A7311
:1008B00028F059FA404080F311884FF0030002DF1E
:1008C0002E4BA4FB0348204625A3D3E90023414631
:1008D000FFF716FC089506952B690493284B20F02A
:1008E0007F47A7FB0331E01A264B07934FF007021F
:1008F000254B059302FB07114FF6FE7368EB0101D0
:1009000003934FF47A720023FFF7FAFB5346CDE9C5
:100910000170CDF800B032460121002011F0C0F87E
:1009200030F002030CD0124A1249134841F62F73DB
:1009300028F019FA404080F311884FF0030002DFDD
:10094000B9F1000F02D10BB0BDE8F08F01220221F6
:1009500010460BB0BDE8F04F10F028B8AFF30080A0
:100960008D49FD1A07000000A0190020CD55010097
:10097000E4160300A81703006CDF020000CA9A3BCC
:100980008D49FD1A75550100EDA70100000000001A
:100990002DE9F04FB0F81091468EB0F82EB0D0F897
:1009A0000C7187B04E44BDF84C50BDF840800191A9
:1009B0005E44B6B2CDE90423721B92B28368009202
:1009C000BDF844200292002BBDF848200392044653
:1009D00009DAC168426823F0004391422CBF7F18B6
:1009E000BF188360FF1A009A638D13FB02F39BB25A
:1009F000B3FBF8F218FB02F080B283421FFA82FACE
:100A00005AD2C01A40F2E2425B4902FB00F0A0FB5E
:100A1000010157A3D3E90023FFF772FB20F07F40C9
:100A20000744D94494F839304D44AD1B554440F245
:100A3000E246DB09E58506FB08F54ED14F4A5049F1
:100A4000504841F6A57328F08EF9404080F3118894
:100A50004FF0030002DF0026A946029BA385039BFB
:100A6000A4F8843129462046A4F82A8017F07EF89D
:100A7000454BA18D2B44881DB3FBF5F39AB29042F0
:100A8000A4F87E2102D2521A063A92B2019BA4F82F
:100A90007A2113B10023A4F886313B464A463146F9
:100AA0002046FFF7DDFE94F8783143F0010384F827
:100AB000783107B0BDE8F08F08FB12312E4840F2C4
:100AC000E24389B203FB01F1A1FB000128A3D3E9B2
:100AD0000023FFF715FB3F1AA3E7226C0099A36CD4
:100AE000DFF894B002FB1133A3641AF0C9FD81460C
:100AF00094F86C01C0F342001AF0C4FD049B8144D9
:100B000006FB03F305FB09F9236509F574291F4B5F
:100B100009F23F29A3FB09394FEA994303FB0AF085
:100B20002364A5EB0309A36C6A080344963A934235
:100B300028BF1346C4E911230023C4F87431A0FB75
:100B40000B010BA3D3E90023FFF7DAFA104B059A48
:100B50003F1AA3FB0230800A06FB00F004A3D3E98E
:100B60000023A0FB0B01FFF7CBFA064675E700BF99
:100B70008D49FD1A0700000000CA9A3BE4160300E5
:100B800030E102006CDF02007FC3C90183DE1B433A
:100B90005917B7D1000000002DE9F04F0B68D3F8CA
:100BA0000090037F93B09046C3F38013154604462C
:100BB00006220E4600F11E0110A80B9358F8087B80
:100BC00028F018FE10A906220EA828F013FE2146D0
:100BD000404651F82EBB032205F1040A28F00AFE14
:100BE00005F11808042204F12A01504628F002FEFB
:100BF000052204F13A01404628F0FCFD404605215B
:100C000010F00EF86B7F00F03F0060F305036B7788
:100C100094F83F30C3F30402AA77A28EEA81012838
:100C200008D903F01F031B3303F01F030B2B01D85C
:100C300092B2BAB90022C9F8142095F8203062F3B4
:100C4000000385F82030E5680126584621462671C4
:100C500013F0EEF828682E71294613F0F3F813B05C
:100C6000BDE8F08F336800215960E38EEA892B825A
:100C700040F2E24303FB02F83846638E0D9316F010
:100C800089FF94F83F2097F86C11520962F34301F1
:100C900087F86C111AF0F4FC0C9097F86C01C0F313
:100CA00042001AF0EFFC0C9A104408FB00F0A84A2E
:100CB00000F5742000F23F20A2FB00204FEA58020A
:100CC000800C963A6862AA6294F8312040F2E243BE
:100CD00002FB03F3AB63238FA7F884314146384608
:100CE00016F044FF9B4B9C4AC7F888214344B3FB52
:100CF000F8F39AB2A7F87E21298A881D824204DD82
:100D0000C1F57F41FA310A4492B2A7F87A215146DF
:100D1000042207F5B87028F06DFD234613F81C2F48
:100D2000C2F340120C92DA0700F1ED809DF82C30EE
:100D3000A3774FF480730EA9A383062204F11F004A
:100D400028F058FDEB89E3842B8A2385B7F884319A
:100D5000638597F86C31C3F3420384F82C3038462E
:100D600014F06CFCA881E08021465846746813F0AA
:100D70005FF8AB89E3801C2323710C9BD4F800B08F
:100D8000002B40F0B6800C9B23772146584613F089
:100D900059F895F85B00B5F850A0B5F8524001211C
:100DA00000F007001AF080FA544404F2A914DFF8A6
:100DB000ACA18346312320180024A0FB0A01BB60AC
:100DC0007C6061A3D3E90023FC60FFF799F920F070
:100DD0007F403861F3680D996D6A40F2E24201206C
:100DE000A8EB050502FB0138224602210FF0DEFDCB
:100DF000484614F013F908F2B2480246A8EB0B0873
:100E0000A8FB0A01924650A3D3E90023FFF778F923
:100E1000CDF80490B3685249009120F07F480AF160
:100E200002023A3BD2B220464344012110F006FFB1
:100E3000012876D099F82430DB0752D4384614F0D4
:100E4000FDFB464BA5FB03A904463FA3D3E90023C2
:100E500050464946FFF754F9424BB668424A07925A
:100E600020F07F45A5FB0331BAEB03003F4B059310
:100E70004FF4EE73069708933B694FF0000BCDE9F2
:100E800003B34FF0070303FB051169EB01014FF4B6
:100E90007A720023FFF734F903343A3EE4B2CDE925
:100EA00001503346CDF8008022460121584610F00B
:100EB000F7FD30F002030CD02D4A2E492E4840F2A7
:100EC000DD1327F050FF404080F311884FF00300FE
:100ED00002DF0122022110460FF068FD13B0BDE8C9
:100EE000F08F0023012200931846114610F064FE93
:100EF000A4E76B7F43F040036B77504619F078FD11
:100F00000123E88340E71A4A1C491B484FF48173C8
:100F100027F029FF404080F311884FF0030002DFE3
:100F200004E713F04DF8814584D0114A1449124862
:100F300040F2A62327F017FF404080F311884FF0BE
:100F4000030002DF76E700BF8D49FD1A07000000AD
:100F500083DE1B437FC3C901404B4C0000CA9A3B50
:100F6000B1A701008D49FD1A81A70100EDA701007D
:100F7000EC1B0300A81703006CDF020078120300CB
:100F8000481C03000000000010B5144610F09AFE43
:100F9000214610F099FE034610F4000003D1DC1C3A
:100FA000092C02D810BD002010BD114A1149124869
:100FB00040F2D91327F0D7FE10480721A4FB000305
:100FC00001FB043108A3D3E90023FFF799F80C498A
:100FD00002460C4827F0C7FE404080F311884FF0CE
:100FE000030002DF012010BD00CA9A3B0000000090
:100FF000781C030030E102006CDF02008D49FD1A0D
:101000006C1E03000C1E030070B5856846680469F9
:1010100012F0FC6F32D1134602F03002302A3DD07C
:1010200003F00212022A49D003F00602042A55D026
:1010300013F4402202D013F4003F5CD0B2F5402FED
:1010400069D013F4801F05D022B113F0010F01D035
:1010500083F4402323F4801236684FF0010C0CFA1D
:1010600001FC16EA0C0F66D013F0010F73D0236851
:101070004CEA030323602B68984770BD384C4FF44B
:101080002D7322463749384827F06DFE374827F040
:101090006AFE4FF42D71204627F05EFE304C40F280
:1010A000B72322463249304827F05DFE314827F009
:1010B0005AFE40F2B721204627F04EFE284C40F25F
:1010C000BB2322462C49284827F04DFE2B4827F009
:1010D0004AFE40F2BB21204627F03EFE204C40F263
:1010E000BF2322462649204827F03DFE40F2BF217B
:1010F000204627F031FE1A4C40F2C22322462149F5
:10110000194827F030FE204827F02DFE40F2C2217A
:10111000204627F021FE124C40F2C62322461B49EE
:10112000114827F020FE1A4827F01DFE40F2C62184
:10113000204627F011FE0A4C40F2D22322461549E0
:10114000094827F010FE144827F00DFE40F2D22186
:10115000204627F001FE236823EA0C0323608AE778
:10116000D8DE02000CDF02006CDF02008CDF020020
:10117000B0DF0200ECDF02002CE0020064E00200BD
:10118000B8E00200ECE0020034E1020070E102008D
:10119000B4E10200E0E1020020E2020010B5436881
:1011A0001A68012303FA01F10A4203D083685B69DC
:1011B000984710BD074C40F266532246064907483F
:1011C00027F0D1FD064827F0CEFD40F266512046BB
:1011D00027F0C2FDD8DE0200E0E102006CDF020071
:1011E00020E202002DE9F04395B000AFE94600236C
:1011F0003B7102237B7188B0694611F1100816D04B
:101200000E20B8F1000F03D0042801DDA44B4B6180
:1012100000233B7002237B70B8F1000F14D0082824
:1012200001DDA04B8B6101F11C0300220AE06FF08D
:101230000040E6E702F150053D4415F8505C03F824
:10124000015B0132012AF5D90D2845DD0E23B8F1E5
:10125000000F08D003223A7100227A71BA7101227C
:10126000FA717868086100256FF300056FF3410596
:101270006FF382056FF3C505032262F38815C3F38C
:10128000090363F352256FF3DE456FF3DF7540F218
:101290008911A12020F006FC0023424629468248FD
:1012A00004F04EF840F28911A12020F0ADFDCD46AA
:1012B0007E4827F002F890B14FF4D0117B4826F019
:1012C000F1FF00283ADB00F0EFFB01F0E5F801F058
:1012D000F5F82BF090FFC0E06FF01B03B7E7744BFD
:1012E000FB6102233B7100257D71BD71FD717B683F
:1012F000BB61A84665F3000865F3410865F3820801
:1013000065F3C508012363F38818082363F35228A3
:1013100065F3DE4865F3DF7840F28911A12020F003
:10132000C1FB2B4607F1180241465F4804F008F85C
:1013300040F28911A12020F067FDBDE75D4B7B6382
:1013400002233B7100257D71BD71FD717B683B639C
:10135000A84665F3000865F3410865F3820865F364
:10136000C508012363F38818082363F3522865F343
:10137000DE4865F3DF7840F28911A12020F092FB6E
:101380002B4607F130024146474803F0D9FF40F2AF
:101390008911A12020F038FD95E7474BFB6402231B
:1013A0003B7100257D71BD71FD717B68BB6465F388
:1013B000000665F3410665F3820665F3C506012361
:1013C00063F38816082363F3522665F3DE4665F35C
:1013D000DF7640F28911A12020F064FB2B4607F153
:1013E00048023146304803F0ABFF40F28911A1209A
:1013F00020F00AFD37E06FF000423FE06FF01B0283
:101400003DB10321397100217971B971F9717868A1
:1014100018616FF300046FF341046FF382046FF3FC
:10142000C504032363F3881402F47B7262F352242D
:101430006FF3DE446FF3DF7440F28911A12020F0D6
:1014400031FB00232A462146174803F079FF40F27A
:101450008911A12020F0D8FCC54610211748FFF7BC
:101460009DFE002899DB4FF47A7026F036FFE8469F
:1014700088B06B4613F11005BDD00C224DB111465A
:10148000042A01DD0E4858610829B7DD4FF47A714E
:1014900099610B2A01DD0C22B2E76FF01B02AFE766
:1014A00034E2020050E20200DCDD0200C4E202008D
:1014B00064E202007CE2020098E2020050DA0200DC
:1014C000B4E20200F0B583B000AF6E4688B06B4660
:1014D00013F1100541D00C223DB11046042A01DD64
:1014E000214C5C61082800DD99610B2A38DD0C2253
:1014F0003DB10321397100217971B971F9717868B1
:10150000186100246FF300046FF341046FF3820449
:101510006FF3C504032363F3881402F47B7262F350
:1015200052246FF3DE446FF3DF7440F28911A1207F
:1015300020F0B8FA00232A4621460C4803F000FFA9
:1015400040F28911A12020F05FFCB546084B5B6892
:1015500003B198470C37BD46F0BD6FF00042BBE7C2
:101560006FF01B02C4E700BFD8E202003CDD0200BE
:10157000E81E0020F0B589B000AF00294DD0084624
:101580006E4688B06B4613F110050DD00C223DB1AC
:101590001146042A01DD3B4C5C61082907DD986196
:1015A0000B2A37DD0C2204E06FF00042EFE76FF00A
:1015B0001B023DB10321397100217971B971F971B3
:1015C0007868186100246FF300046FF341046FF32F
:1015D00082046FF3C504012363F3881402F47B7360
:1015E00063F352246FF3DE446FF3DF7440F289112A
:1015F000A12020F057FA00232A462146224803F072
:101600009FFE40F28911A12020F0FEFBB546243751
:10161000BD46F0BD6FF01B02CBE71C4BFB61022304
:101620003B7100247C71BC71FC717B68BB612546F9
:1016300064F3000564F3410564F3820564F3C505B2
:10164000032363F38815082363F3522564F3DE450F
:1016500064F3DF7540F28911A12020F023FA2346BC
:1016600007F118022946084803F06AFE40F2891182
:10167000A12020F0C9FB064B1B68002BC7D0984760
:10168000C5E700BFF8E202003CDD020024E30200EF
:10169000E81E00202DE9F0418EB002AF00237B60F0
:1016A000BB60FB603B617B610122BA603022FA6063
:1016B00060223A61464ABA60009303224549381DC8
:1016C00009F0FAFF064600284ED0E84688B002AB83
:1016D00013F110050DD00C223DB11146042A01DD95
:1016E0003D485861082907DD9E610B2A39DD0C222F
:1016F00004E06FF00042EFE76FF01B023DB1032101
:10170000397000217970B970F97038681861002457
:101710006FF300046FF341046FF382046FF3C504A9
:10172000012363F3881402F47B7363F352246FF391
:10173000DE446FF3DF7440F28911A12020F0B2F98A
:1017400000232A462146254803F0FAFD40F289117C
:10175000A12020F059FBC54630463037BD46BDE8D4
:10176000F0816FF01B02C9E71D4BFB6202233B7047
:1017700000247C70BC70FC703B68BB62254664F33F
:10178000000564F3410564F3820564F3C505032392
:1017900063F38815082363F3522564F3DE4564F38D
:1017A000DF7540F28911A12020F07CF9234607F172
:1017B00028022946094803F0C3FD40F28911A120FF
:1017C00020F022FB074B9B68002BC5D09847C3E74E
:1017D0000100030028E4020034E302003CDD0200C3
:1017E0005CE30200E81E00202DE9F04188B000AF64
:1017F00009F092FF064600284ED0E84688B06B46B6
:1018000013F110050DD00C223DB11146042A01DD63
:101810003B485861082907DD9E610B2A39DD0C22FF
:1018200004E06FF00042EFE76FF01B023DB10321CF
:10183000397100217971B971F971786818610024E2
:101840006FF300046FF341046FF382046FF3C50478
:10185000012363F3881402F47B7363F352246FF360
:10186000DE446FF3DF7440F28911A12020F01AF9F1
:1018700000232A462146234803F062FD40F28911E5
:10188000A12020F0C1FAC54630462037BD46BDE84C
:10189000F0816FF01B02C9E71B4BFB6102233B7118
:1018A00000247C71BC71FC717B68BB61254664F3CC
:1018B000000564F3410564F3820564F3C505032361
:1018C00063F38815082363F3522564F3DE4564F35C
:1018D000DF7540F28911A12020F0E4F8234607F1DA
:1018E00018022946074803F02BFD40F28911A12078
:1018F00020F08AFA054BDB68002BC5D09847C3E778
:1019000080E302003CDD0200A8E30200E81E0020A4
:101910002DE9F0418EB000AF06465D4BFB6102231E
:101920003B7100247C71BC71FC717B68BB612546F6
:1019300064F3000564F3410564F3820564F3C505AF
:10194000032363F38815082363F3522564F3DE450C
:1019500064F3DF7540F28911A12020F0A3F823463B
:1019600007F1180229464B4803F0EAFC40F28911BE
:10197000A12020F049FA26B1474C96E80F0084E8F0
:101980000F0046480AF0FCFF002008F0E9FE06467A
:1019900000284ED0E84688B06B4613F110050DD0F4
:1019A0000C223DB11146042A01DD3D485861082949
:1019B00007DD9E610B2A39DD0C2204E06FF0004246
:1019C000EFE76FF01B023DB10321397100217971FE
:1019D000B971F9717868186100246FF300046FF32E
:1019E00041046FF382046FF3C504012363F3881489
:1019F00002F47B7363F352246FF3DE446FF3DF74FE
:101A000040F28911A12020F04DF800232A462146FA
:101A1000204803F095FC40F28911A12020F0F4F950
:101A2000C54630463837BD46BDE8F0816FF01B0231
:101A3000C9E71C4B7B6302233B7100247C71BC71A2
:101A4000FC717B683B63254664F3000564F3410544
:101A500064F3820564F3C505032363F38815082343
:101A600063F3522564F3DE4564F3DF7540F28911B8
:101A7000A12020F017F8234607F130022946054837
:101A800003F05EFC40F28911A12020F0BDF9C8E707
:101A9000CCE302003CDD0200E81E0020F003002041
:101AA000E0E30200FCE3020008B5084826F0CBFCA6
:101AB00021F050F80022064906482BF072FE0A2257
:101AC000C821054820F0E8FC08BD00BF40E4020042
:101AD00007830200480E0020F81E002000B583B0E6
:101AE00021220023CDE90023044825F073FE044899
:101AF00026F0A9FC03B05DF804FB00BF480E0020EF
:101B000050E4020008B50A460146054826F09BFC51
:101B1000404080F311884FF0040002DF08BD00BF91
:101B200060E402000B88092B03D0044B8360002083
:101B30007047034B83600820704700BFE3D1020069
:101B4000B91C000070B594B006460024042C72D86D
:101B50005248FFF7DDFE10B10134E4B2F6E7504819
:101B600004F0FCF9A8BB4F4B139302238DF804300B
:101B700000248DF805408DF806408DF80740019B44
:101B80001293254664F3000564F3410564F382056E
:101B900064F3C505032363F38815082363F3522513
:101BA00064F3DE4564F3DF7540F28911A1201FF074
:101BB00079FF234612AA29463B4803F0C1FB40F2B5
:101BC0008911A12020F020F9384BB360082014B00F
:101BD00070BD374B0D9302238DF8043000248DF82F
:101BE00005408DF806408DF80740019B0C93254673
:101BF00064F3000564F3410564F3820564F3C505ED
:101C0000012363F38815082363F3522564F3DE454B
:101C100064F3DF7540F28911A1201FF043FF2346D2
:101C20000CAA2946204803F08BFB40F28911A12021
:101C300020F0EAF8C8E71F4B079302258DF80450FF
:101C400000248DF805408DF806408DF80740019B73
:101C50000693264664F3000664F3410664F38206A5
:101C600064F3C506012363F38816082363F3522641
:101C700064F3DE4664F3DF7640F28911A1201FF0A1
:101C800011FF234606AA3146074803F059FB40F2EC
:101C90008911A12020F0B8F8284698E71C040020FC
:101CA000100400208CE4020034DD0200B91C0000A6
:101CB000A4E40200C8E402000B880A2B70D02DE9CE
:101CC000F04182B000AF0D2B66D0012B03D0374B13
:101CD000836000200AE036490D230B8035480368F5
:101CE000DC6800234FF6FF72A04703200837BD468B
:101CF000BDE8F0816FF000423EE00B2A49DD0C2286
:101D00003EB10321397100217971B971F971786897
:101D100018616FF300046FF341046FF382046FF3F3
:101D2000C504022363F3881402F47B7363F3522423
:101D30006FF3DE446FF3DF7440F28911A1201FF0CE
:101D4000B1FE0023324621461B4803F0F9FA40F267
:101D50008911A12020F058F8C5460135EDB2042DB7
:101D60001CD8FFF797FCF8B12846E84688B06B46C8
:101D700013F11006BED00C22002EBED01146042A4C
:101D800003DDDFF838C0C3F814C00829B5DD986159
:101D9000B3E76FF01B02B3E70025E0E70320A5E7F8
:101DA000074B83600820704703209FE7E3D10200C0
:101DB0000C040020880E002034DD0200E4E4020060
:101DC000C51D00002DE9F04383B000AF05460B8828
:101DD000013B0A2B7CD8DFE803F006707B0F7B7B8E
:101DE0007B177B7B1300002247F2305100F58C708B
:101DF00020F0CCFC032067E0374B8360082063E0D1
:101E0000354B836008205FE0344B836008205BE043
:101E10006FF0004240E00B2A4CDD0C22B8F1000FBD
:101E200007D00321397100217971B971F97178688E
:101E300018616FF300046FF341046FF382046FF3D2
:101E4000C504022363F3881402F47B7363F3522402
:101E50006FF3DE446FF3DF7440F28911A1201FF0AD
:101E600021FE0023424621461D4803F069FA40F254
:101E70008911A1201FF0C8FFCD460136F6B2042E0D
:101E80001DD8FFF7B1FCD0B13046E94688B06B46AB
:101E900013F11008BCD00C22B8F1000FBBD01146D2
:101EA000042A03DDDFF83CC0C3F814C00829B2DD02
:101EB0009861B0E76FF01B02B0E70026DFE705F599
:101EC0008C7020F0DBFC03200C37BD46BDE8F083AE
:101ED000054B83600020F7E7B91C0000251B0000BC
:101EE00034DD020008E50200E3D1020070B588B0DD
:101EF0001D4B079302238DF8043000248DF8054014
:101F00008DF806408DF80740019B0693254664F343
:101F1000000564F3410564F3820564F3C5050323FA
:101F200063F38815082666F3522564F3DE4564F3EF
:101F3000DF7540F28911A1201FF0B4FD234606AAE7
:101F400029460A4803F0FCF940F28911A1201FF04C
:101F50005BFF07490E8007480368DD6823464FF69C
:101F6000FF72A84708B070BD2CE5020034DD020006
:101F70000C040020880E002030B589B01E4B07935A
:101F800002238DF8043000248DF805408DF80640BA
:101F90008DF80740019B0693254664F3000564F322
:101FA000410564F3820564F3C505032363F38815D3
:101FB000082363F3522564F3DE4564F3DF7540F2D2
:101FC0008911A1201FF06EFD234606AA29460B4861
:101FD00003F0B6F940F28911A1201FF015FF08495E
:101FE00009230B8007480368DD6823464FF6FF721C
:101FF000A84709B030BD00BF44E5020034DD02004F
:102000000C040020880E002030B589B01E4B0793C9
:1020100002238DF8043000248DF805408DF8064029
:102020008DF80740019B0693254664F3000564F391
:10203000410564F3820564F3C505032363F3881542
:10204000082363F3522564F3DE4564F3DF7540F241
:102050008911A1201FF026FD234606AA29460B4818
:1020600003F06EF940F28911A1201FF0CDFE08495E
:102070000A230B8007480368DD6823464FF6FF728A
:10208000A84709B030BD00BF60E5020034DD0200A2
:102090000C040020880E002030B589B01E4B079339
:1020A00002238DF8043000248DF805408DF8064099
:1020B0008DF80740019B0693254664F3000564F301
:1020C000410564F3820564F3C505032363F38815B2
:1020D000082363F3522564F3DE4564F3DF7540F2B1
:1020E0008911A1201FF0DEFC234606AA29460B48D1
:1020F00003F026F940F28911A1201FF085FE08495E
:102100000B230B8007480368DD6823464FF6FF72F8
:10211000A84709B030BD00BF7CE5020034DD0200F5
:102120000C040020880E002030B589B0194B0793AD
:1021300002238DF8043000248DF805408DF8064008
:102140008DF80740019B0693254664F3000564F370
:10215000410564F3820564F3C505032363F3881521
:10216000082363F3522564F3DE4564F3DF7540F220
:102170008911A1201FF096FC234606AA294606488D
:1021800003F0DEF840F28911A1201FF03DFE09B0F6
:1021900030BD00BF98E5020034DD0200F0B589B023
:1021A00000AF0646484BFB6102233B7100247C7163
:1021B000BC71FC717B68BB61254664F3000564F368
:1021C000410564F3820564F3C505032363F38815B1
:1021D000082363F3522564F3DE4564F3DF7540F2B0
:1021E0008911A1201FF05EFC234607F11802294641
:1021F000364803F0A5F840F28911A1201FF004FE33
:10220000DEB9334A00233B7102237B7188B06946F3
:1022100011F1100513D00E201DB1042801DD2D4B46
:102220004B6100233B7002237B70ADB1082800DDB9
:102230008A6101F11C0300220CE0274AE2E76FF0FB
:102240000040E9E702F120043C4414F8204C03F874
:10225000014B0132012AF5D90D2831DD0E2345B19C
:1022600003223A7100227A71BA710122FA717868F8
:10227000086100246FF300046FF341046FF38204DC
:102280006FF3C504032262F38814C3F3090363F3F5
:1022900052246FF3DE446FF3DF7440F28911A12002
:1022A0001FF000FC00232A462146084803F048F8A6
:1022B00040F28911A1201FF0A7FD2437BD46F0BDD3
:1022C0006FF01B03CBE700BFC4E5020034DD020062
:1022D000B0E50200E4E50200B8E502002DE9F041B6
:1022E00088B000AF88461646674BFB6102233B71FE
:1022F00000247C71BC71FC717B68BB61254664F372
:10230000000564F3410564F3820564F3C505032306
:1023100063F38815082363F3522564F3DE4564F301
:10232000DF7540F28911A1201FF0BCFB234607F1A5
:1023300018022946554803F003F840F28911A120FC
:102340001FF062FD41F288323146404600F0E0F86D
:1023500000284DD1E84688B06B4613F110050DD02A
:102360000C223DB11146042A01DD49485861082973
:1023700007DD9E610B2A38DD0C2204E06FF000427D
:10238000EFE76FF01B023DB1032139710021797134
:10239000B971F9717868186100246FF300046FF364
:1023A00041046FF382046FF3C504032363F38814BD
:1023B00002F47B7363F352246FF3DE446FF3DF7434
:1023C00040F28911A1201FF06DFB00232A4621460F
:1023D0002E4802F0B5FF40F28911A1201FF014FD34
:1023E000C5462037BD46BDE8F0816FF01B02CAE745
:1023F00001466E4688B06B4613F110050DD00C22D5
:102400003DB11046042A01DD224C5C61082807DD3D
:1024100099610B2A35DD0C2204E06FF00042EFE7F2
:102420006FF01B023DB10321397100217971B9713F
:10243000F9717868186100246FF300046FF34104A8
:102440006FF382046FF3C504032363F3881402F46B
:102450007B7363F352246FF3DE446FF3DF7440F257
:102460008911A1201FF01EFB00232A4621460748A0
:1024700002F066FF40F28911A1201FF0C5FCB546AD
:10248000AFE76FF01B02CDE7F8E5020034DD020094
:1024900014E6020034E6020010B5064C0649204658
:1024A0001FF058FF00230422214604F58C7020F011
:1024B00053F910BD880E0020451B000010B584B0F4
:1024C0000E4C0F4A002120462AF09AFE23687BB169
:1024D0000A4803689C68002302934FF480630193C9
:1024E000084B00931423084A0521A04704B010BDEF
:1024F0007C210648FFF706FBEAE700BF880E0020B4
:1025000050E60200804B0020C01F002058E6020069
:102510002DE9F04383B000AF06460D46510CD203BF
:1025200040F2E733D0184FF47A724FF0000341F1D4
:102530000001FDF7E5FD80460C4602460B46784853
:1025400021F0C4FE00284DD081466E4688B06B460F
:1025500013F1100540D00C2245B11146042A01DDCB
:1025600070485861082901DDC3F818900B2A36DD40
:102570000C223DB10321397100217971B971F971D2
:102580007868186100246FF300046FF341046FF35F
:1025900082046FF3C504012363F3881402F47B7390
:1025A00063F352246FF3DE446FF3DF7440F289115A
:1025B000A1201FF077FA00232A4621465A4802F04C
:1025C000BFFE40F28911A1201FF01EFCB54648460F
:1025D0000C37BD46BDE8F0836FF00042BCE76FF0FA
:1025E0001B02C6E7424623462946304620F02EFD10
:1025F0008146002845D1E84688B06B4613F11006A5
:1026000000F088800C223EB11146042A01DD4748C3
:102610005861082900DD9D610B2A7EDD0C223EB148
:102620000321397100217971B971F97178681861E4
:1026300000246FF300046FF341046FF382046FF31F
:10264000C504032363F3881402F47B7262F35224FB
:102650006FF3DE446FF3DF7440F28911A1201FF0A5
:1026600021FA0023324621462F4802F069FE40F24B
:102670008911A1201FF0C8FBC546294821F054FF4D
:10268000A5E76E4688B06B4613F110053CD00C22CE
:1026900045B11146042A01DD25485861082901DDAC
:1026A000C3F818900B2A32DD0C223DB10321397199
:1026B00000217971B971F9717868186100246FF39C
:1026C00000046FF341046FF382046FF3C504012328
:1026D00063F3881402F47B7262F352246FF3DE44D6
:1026E0006FF3DF7440F28911A1201FF0DBF90023A2
:1026F0002A4621460C4802F023FE40F28911A1200F
:102700001FF082FBB54662E76FF00042C0E76FF052
:102710001B02CAE76FF0004275E76FF01B027EE70D
:102720002C0C002078E6020014DE0200B0E6020065
:1027300094E60200F8B540B10646037845788478FF
:1027400004EB83040444002711E00B4CC62322460B
:102750000A490B4826F007FBC621204626F0FCFA62
:102760000134204627F021F8013004440137AF42FC
:10277000F6D3A01BF8BD00BFCCE60200FCE60200C9
:102780006CDF02002DE9F04F91B0059203931346E0
:1027900002F004020092C3F3C20210F0030301939B
:1027A00040F0638207468A460132041D002848D063
:1027B00027B1E31B0433534500F25A82039B5D1E8D
:1027C000019B04930693029300264FF0FF3B4FF0CA
:1027D0000408C1460FB1039B2360531E0793002AD0
:1027E00040F35F81059B13F0020227D00120E11B1B
:1027F0008B081AB1B1F5007F80F06781029A0F2A29
:1028000000F27381002F00F08481DBB2029901F1A4
:1028100040026A4402F8103C02F820BC002800F094
:10282000748163F07F0301F140026A4402F8103CB6
:10283000049B01330493029B01330293043400226E
:102840003DE001F0070A5444CAF1080AB0E7002647
:1028500034E0002632E0002630E04FF00808C146A0
:102860002CE025292AD10BF1010B01264FF0040899
:10287000C14623E04729ECD82A2912D32A39C9B204
:10288000012000FA01F14FF6DA70014216D111F081
:10289000625F40F0C38011F0010F40F08D80002690
:1028A0000CE0252903D10BF1FF3B002606E001D9FE
:1028B000002603E0202901D02329CCD11D466B1C22
:1028C0006978002900F04D81002ECAD07A29BED83F
:1028D0004C29CFD34C392E2960D801A050F821F0D3
:1028E000BD2800009D2900009D2900009D290000B1
:1028F0009D2900009D2900009D2900009D290000C0
:102900009D2900009D2900009D2900009D290000AF
:10291000B12900009D2900009D2900009D2900008B
:102920009D2900009D2900009D2900009D2900008F
:102930009D2900001D2A00009D290000B1290000EA
:10294000B12900001D2A00001D2A00001D2A0000D8
:10295000BD280000B12900005B2800009D2900006F
:10296000BD2800009D2900007B2A0000B12900003D
:102970007B2A00009D2900009D290000852A000077
:10298000A9290000B12900009D2900009D2900000F
:10299000B12900009D290000A129000000268DE733
:1029A0004FF00408C14689E74FF00408C14685E7A7
:1029B00029786C2924D000264444013CC8F1000148
:1029C0000C40204627B1E11B4944514500F2538198
:1029D000002A5DD1B9F1040F00F0AA80B9F1080F07
:1029E00040F0AE801A99073121F0070101F108008B
:1029F0001A90D1E900010FB1C4E9000108345DE784
:102A000013F8021C6C2904D000264FF00408C146BC
:102A1000D2E700264FF00808C146CDE729784C29B7
:102A20001BD01A99073121F0070101F108001A9013
:102A3000D1E90001073424F0070447B1E61B08364A
:102A4000564514D82D784C2D14D0C4E90001083413
:102A500000264FF00808C14630E71A99073121F0E7
:102A6000070101F108001A90D1E90001E2E76FF0D7
:102A70001B00F7E0C4E90001E9E700264FF0040875
:102A8000C14699E7324600264FF00408C14693E755
:102A900004461A9A111D1A9112680392079A1D464C
:102AA00098E6794B039A9A4204D3784B9A420AD318
:102AB000002300E00023002B7FF494AE059B03F07D
:102AC0000202002093E60123F5E7714C40F27B23DC
:102AD00022467049704826F046F9704826F043F9BE
:102AE00040F27B21204626F037F9694C4FF42073E1
:102AF00022466849684826F036F9694826F033F9D5
:102B00004FF42071204626F027F9069B01330693E7
:102B100091E610B10AF1010A8DE6009B13B10AF1AA
:102B2000020A88E6039826F040FE831C9A4482E657
:102B30001A99081D1A90096807B121600434BDE68E
:102B4000534C40F2C52322465249534826F00BF914
:102B50004946544826F007F940F2C521204626F0A0
:102B6000FBF8E31BB3F5806F13D217B300223A6072
:102B70009B083B70009B03B3069BFB70049BBB70E0
:102B80009BBB019DDDF80890DDF810B0DDF80C80EE
:102B90004BE03F4C40F2D12322463E493E4826F0CE
:102BA000E2F8414826F0DFF840F2D121204626F035
:102BB000D3F85344A3F1080054E0069B7B70DDE793
:102BC00001339842DDD903F140026A4412F8101C27
:102BD00012F9102C002AF3DA01F07F01E21B013216
:102BE00052454BD804F8011BEAE7019B0298E8E73D
:102BF000009B3BB305F140036B4413F8203C04F801
:102C0000013B019EE31B33440133534539D805F1A1
:102C100040036B4413F8103C04F8013B3246414634
:102C2000204626F0E7FD34440135A94519D9BBF10A
:102C3000000FDDD005F140036B4413F9103C002B6D
:102C4000D6DAF1E705F140036B4413F8103C57F86E
:102C50002380002247F82320404626F0A6FD461C8C
:102C6000D0E7E01B11B0BDE8F08F6FF00D00F9E781
:102C70006FF01B00F6E76FF01B00F3E76FF01B002F
:102C8000F0E76FF01B00EDE778D902003044030055
:102C9000CCE6020030E102006CDF020014E7020023
:102CA00038E7020054E702006CE702002DE9F04F1C
:102CB00097B000AF39617A617862B0B19B46D7F8BE
:102CC0008030C3F3C003FB613B69DBB17B6A93F8DF
:102CD0000280C7F80C80B8F1000F18D0D7F8803008
:102CE00013F0010F1FD1002312E0B24C4FF46573B3
:102CF0002246B149B14826F036F84FF465712046B6
:102D000026F02AF8786AFFF715FD3861DEE7002320
:102D10007A6AD2783A6242B1D7F8802012F0020F74
:102D200022D1002202E00123F2E7002202B9EBB136
:102D3000796A0D78AA00BA600A464968B96102EB5F
:102D400085057A69FAB1002B40F01B81FB68002BE6
:102D500000F02681D7F8803013F0040F40F0248172
:102D600000208246804610E10122DFE77B691BB12B
:102D70005A463969786A9847D7F8109048465C37C0
:102D8000BD46BDE8F08FD7F810900BBBFB68ABB326
:102D9000D7F8802012F0040627D01D44002624E036
:102DA00081440135013454451DD22A7800235BF853
:102DB00022201946786925F0BAFAB8F1000FEFD051
:102DC000D7F888309E42EBD228F816000136E7E7A4
:102DD00000242646C7F810A0D7F80CA0D7F824B0D6
:102DE000D7F88480DFE7D7F810A0D7F8803003F059
:102DF0000503FB604FF0000B3E61ADE0FE68F4E7B9
:102E00000025FB698BB9002D00F08880D7F8803051
:102E100013F0010F40F08780FB68002B7CD1022368
:102E2000A9EB030995E00125EBE74146B86925F0D8
:102E3000C5FA0028E7D06E46002387F82C3002231D
:102E400087F82D308AB06A4612F1100544D012205E
:102E50001DB1042801DD5A4B5361002387F8283047
:102E6000022387F82930D5BB112852DD122365B122
:102E7000042187F82C10002187F82D1087F82E10D8
:102E8000012187F82F10F86A10616FF3000A6FF3C1
:102E9000410A6FF3820A6FF3C50A022262F3881AAD
:102EA000C3F3090363F3522A6FF3DE4A6FF3DF7A49
:102EB00040F28911A1201EF0F5FD00232A4651465B
:102EC000404802F03DFA40F28911A1201EF09CFF1B
:102ED000B546A9F102093CE06FF00040B8E70346AF
:102EE000082801DDB96991610C2B01DDC2F81C8055
:102EF00002F12003002109E001F1300C07F1280E56
:102F0000F4441CF830CC03F801CB01310129F3D98A
:102F1000AAE76FF01B03AAE7012381E7D7F8803007
:102F200013F0020F15D0002332461946786925F0B8
:102F3000FEF9D7F8843053B13B69D7F88820934223
:102F400005D2D7F8842022F8130001333B61013801
:102F500081440BF1010B25463B6A9B45BFF40EAF44
:102F60002C4614F8028B6B787A6A52F82360164B61
:102F70009E42FFF445AF154B9E42FFF454AF00252F
:102F80003FE707F144004FF0000A18B1FA682946FC
:102F900026F030FCFB681D440026C7F804B032E080
:102FA000002082468046F0E7C24607F134004FF029
:102FB0000008EAE7CCE6020084E702006CDF0200CA
:102FC000A0E70200ACDD020078D902003044030023
:102FD0000025FB696BBB002D61D0D7F8803013F062
:102FE000010F3AD0B8F10F0F2AD808F1010308F108
:102FF000300207F1280102EB010808F8149C5FFA7F
:1030000083F8013625463B6A9E4280F08E802C462E
:1030100014F802BB95F801907B6A53F82930874A6F
:103020009342D5D3864A934201D30025D1E70125A7
:10303000CFE75946B86925F0C1F90028CBD0E0E7C1
:10304000804C40F23E4322467F49804825F08BFE6B
:1030500040F23E41204625F07FFED7F8803013F045
:10306000040FCED0BAF10F0F0CD80AF101030AF108
:10307000300207F1280102EB010A0AF8249C5FFAEA
:1030800083FABEE76F4C40F24143224670496F48D5
:1030900025F069FE40F24141204625F05DFED7F85B
:1030A000803013F0020F1CD0B8F10F0F0CD808F1CC
:1030B000010308F1300207F1280102EB010808F8CA
:1030C000149C5FFA83F89CE75E4C4FF489632246B8
:1030D0005D495E4825F047FE4FF48961204625F0A2
:1030E0003BFEBAF10F0F13D80AF101030AF13002C7
:1030F00007F128010A4402F824BC0AF1020A5FFA27
:103100008AFA07F1580252FA83F303F8249C78E70D
:103110004C4C40F24B4322464D494C4825F023FE8F
:1031200040F24B41204625F017FED7F804B07A6AEA
:10313000137887F854305378434487F85530D7F8DC
:10314000803013F0020F0DD1CAF3470387F85730D0
:10315000D7F8803013F0010F06D113F0040F35D1EA
:10316000002302E00023F1E7002387F856307C6A51
:1031700020683863786D20605A46B96820467E69B9
:10318000B047B0F10009FFF6F9AD386B20605A4640
:10319000514607F13400B047002849DB09EB000431
:1031A000FA68BB681A443B6A02EB43015A463B6922
:1031B000591A2846B047B0F10009FFF6DFAD4C447C
:1031C0000025C7F82080D7F8849015E05346CCE757
:1031D0004FF0000A5A46012107F12C00B0470028A1
:1031E00028DB0444534642465946304625F09FF8B2
:1031F000002821DB044401353B6A9D4211DA05F1C8
:10320000300307F12802134413F8143C87F82C30DC
:103210007A6A52F82380B9F1000FD9D039F815A095
:10322000D8E75A46002108467B699847A146A5E59C
:103230008146A3E58146A1E581469FE578D9020054
:1032400030440300CCE6020044E802006CDF0200D8
:1032500064E80200014B1860704700BF2C04002096
:1032600010B586B0044603900491002105910091A9
:1032700003A9064800F0B6FD059B049A934201DAC3
:103280000022E254059806B010BD00BF0F84020072
:1032900000293BD038B50D460468204625F07AF960
:1032A0000146C20004EBC0035B8813F0010F0FD08E
:1032B00000EB530334F833001B1A994217D1A318BB
:1032C0005A8822F001025A80204625F07FF938BD45
:1032D0000F4CAF2322460F490F4825F044FD2946E5
:1032E0000E4825F040FDAF21204625F035FD084C65
:1032F000B72322460A49084825F035FD29460948E2
:1033000025F031FDB721204625F026FD704700BF8E
:1033100098E80200BCE802006CDF0200D0E802007E
:1033200008E9020030E902002DE9F8431546066875
:103330004B420B4001F1FF3919EA010904D0032B7C
:103340004AD84C46994603E00C4604293FD9042349
:10335000621E224244D1002D66D0B268B2EBD50F76
:1033600065D96119C91A0B31C908304625F05FF9D2
:10337000074600285ED00146304625F08AF800EB6B
:103380000908A04408F1FF38644208EA0408A8EBE1
:10339000090808EB0504073424F0070441463046C9
:1033A00025F0F8F80546A41BE410874228D3EF0067
:1033B00006EBC5035B8805EB53039C422AD33E44CE
:1033C000738843F0010373804046BDE8F8831146DB
:1033D00025F068F98046F7E74C4699460423B7E79D
:1033E000164C4FF4A27322461549164825F0BBFC33
:1033F000154825F0B8FC4FF4A271204625F0ACFC2E
:1034000002463946304625F08EF83946304625F0DA
:10341000D1F8CCE722462946304625F084F82146EB
:10342000304625F0C7F8CAE74FF00008CCE74FF068
:103430000008C9E74FF00008C6E700BF98E802009F
:103440006CE902006CDF020088E9020070B5B2F599
:10345000802F1FD20346042A2CD9043AC81D20F01D
:1034600007000A4422F00702121AD508172A31D998
:10347000186085600023C360B5FA85F1C1F1200EA4
:10348000C1F124018900CE1DF1084B1CAB4231D89B
:10349000002345E0344C40F2EB13224633493448D4
:1034A00025F061FC334825F05EFC40F2EB1120462C
:1034B00025F052FC2C4C4FF4F97322462E492C482F
:1034C00025F051FC2D4825F04EFC4FF4F9712046B3
:1034D00025F042FC244C40F2FB13224628492448A4
:1034E00025F041FC254825F03EFC40F2FB1120462A
:1034F00025F032FC1C4C4FF40373224621491C4832
:1035000025F031FC1D4825F02EFC4FF403712046B8
:1035100025F022FC03F1040C002440F82C40013378
:103520007345F7DB4C00A4B244804FF0000CA0F8C8
:1035300000C044F0010444806B1A4FEA430E26F0A9
:103540000704A51C20F805E0015322F00704951C90
:1035500020F805C002440353538843F0010353800D
:1035600025F028F870BD00BF98E80200A8E9020025
:103570006CDF0200C0E90200D8E90200FCE90200A9
:1035800018EA020044EA020010B504468C46838B18
:10359000002A12DB03F007035A1F012A19D9042B52
:1035A00050D1002125F0B0F8204625F0D7F878B1A9
:1035B000A38B43F02003A3830AE0D0E900018CE849
:1035C00003000023236063600121204625F09CF85E
:1035D00010BDD0E900018CE8030000222260626087
:1035E000062B0FD0052B20D10021204625F08CF88A
:1035F000204625F0B3F80028EAD0A38B43F020033F
:10360000A383E5E7DCF8003053B1E28B0132E283BB
:103610001A461B68002BF7D0002AF5D11346F3E7B2
:103620000221204625F070F8E2E70D4C40F2091324
:1036300022460C490C4825F096FB40F20911204621
:1036400025F08AFB064C40F21B1322460749064828
:1036500025F089FB40F21B11204625F07DFB00BFC1
:1036600070EA020094EA02006CDF020030E102001E
:103670002DE9F04782B0838BE1B10446154603F093
:10368000070603F00802084692B301291FD0022959
:1036900021D143F02003A3831434204620F072FA92
:1036A000002800F09D8185F31188BFF36F8F02B071
:1036B000BDE8F087B94C40F233132246B849B94807
:1036C00025F051FB40F23311204625F045FB43F035
:1036D0001003A383E0E7B14C4FF49E732246B24936
:1036E000B04825F040FB4FF49E71204625F034FB96
:1036F00000230093019358E0204625F02FF856E070
:10370000D4F818904A4669462046FFF73DFF002747
:10371000A38B03F00708B04500F00981A268002AD6
:1037200000F00581012643F00803A38304F1140A85
:10373000504620F027FA002800F0028185F3118816
:10374000BFF36F8F002E40F00A81009B2BB14B46D8
:1037500042466946204625F042F817B19349204673
:10376000B8474FF02003EFF3118583F31288BFF3BE
:103770006F8F504620F0F6F9002800F0F680504692
:1037800020F010FAA38B23F00803A383A38B13F07C
:10379000100F00F0F98023F01003A3830120A68B03
:1037A00006F0070600283FF477AF0228A4D00028CF
:1037B0003FF472AF0138042800F2AC8001A353F843
:1037C00020F000BF0137000015390000D937000094
:1037D00041380000AB3800005EB92368B3B12369FB
:1037E0001F6807B30621204624F08EFF4FF0000922
:1037F0008EE76A4C4FF4AB7322466D49694825F059
:10380000B2FA4FF4AB71204625F0A6FA634C40F2B1
:10381000571322466749634825F0A5FA40F257112D
:10382000204625F099FA5D4C4FF4AD73224662496B
:103830005C4825F098FA4FF4AD71204625F08CFADB
:10384000022E0BD1E38BB3B923695F6807B3042160
:10385000204624F059FF4FF0000959E74F4C40F241
:103860005D13224655494F4825F07DFA40F25D111F
:10387000204625F071FA494C4FF4AF732246504967
:10388000484825F070FA4FF4AF71204625F064FAED
:10389000424C40F2611322464749424825F063FA00
:1038A00040F26111204625F057FA012E0BD1236812
:1038B000B3B123699F6807B30521204624F024FF94
:1038C0004FF0000924E7354C4FF4B27322463D49CE
:1038D000344825F048FA4FF4B271204625F03CFAFE
:1038E0002E4C40F26513224632492E4825F03BFA11
:1038F00040F26511204625F02FFA284C4FF4B4739E
:1039000022462D49274825F02EFA4FF4B47120465F
:1039100025F022FA214C40F26B1322462A49214815
:1039200025F021FA40F26B11204625F015FA009A95
:103930000AB10026F7E6002F3FF428AF0026F2E692
:10394000224CC22322462249164825F00CFA514641
:10395000204825F008FAC221204625F0FDF94A4604
:103960004146204624F0D8FEEFE6184C9423224628
:1039700019490C4825F0F7F95146184825F0F3F994
:103980009421204625F0E8F913F0200F04D023F00D
:103990002003A383022002E7002000E770EA020070
:1039A000BCEA02006CDF0200CCEA0200113A00001F
:1039B000E0EA0200ECEA020010EB020028EB020051
:1039C00040EB020050EB020030E1020068EB020025
:1039D00098EB0200B0EB0200C8EB0200E0EB020043
:1039E000074DC2232A460749074825F0BCF921465E
:1039F000064825F0B8F9C221284625F0ADF900BFE8
:103A000068EB020098EB02006CDF0200B0EB0200F2
:103A1000F8B504460D4600F114064FF02003EFF30D
:103A2000118783F31288BFF36F8F304620F09AF826
:103A300048B1304620F0B6F8A5613A46012120464B
:103A4000FFF716FEF8BD074C9423224606490748A7
:103A500025F089F93146064825F085F9942120465C
:103A600025F07AF968EB0200C8EB02006CDF020077
:103A7000E0EB02002DE9F84F0446884624F087FE6B
:103A8000061E48DB04F114074FF02003EFF3118A00
:103A900083F31288BFF36F8FD346384620F062F865
:103AA0008146A8B1384620F07DF8A58B05F00705C2
:103AB000E38B4FF6FF7293424BD02E46022D16D069
:103AC000062D39D8DFE805F0314C3838312A31007D
:103AD0003A4C942322463A493A4825F044F939466B
:103AE000394825F040F99421204625F035F9013375
:103AF000E38300231A4642B10022C8F8002062681E
:103B0000AAB3C2F80080C4F80480ABB352460221C5
:103B10002046FFF7ADFD3046BDE8F88F6FF0850613
:103B20004FF000094B464A46E5E7B5FA85F35B09D5
:103B30004A464FF00009DEE7244C4FF4E473224676
:103B40002349204825F00FF94FF4E471204625F071
:103B500003F96FF00A064FF000094B464A46CAE7E0
:103B60006FF004064FF000094B464A46C3E7C4F81D
:103B70000480C4F80080C8E7384620F003F868B134
:103B80008BF31188BFF36F8FB9F1000FC3D00023FF
:103B90002A464146204624F00FFEBCE7074CC223CC
:103BA00022460C49074825F0DEF839460A4825F038
:103BB000DAF8C221204625F0CFF800BF68EB0200FA
:103BC000C8EB02006CDF0200E0EB020070EA0200CA
:103BD00050EB020098EB0200B0EB02002DE9F0413F
:103BE000044600F114054FF02003EFF3118683F330
:103BF0001288BFF36F8F28461FF0B4FF70B13746AD
:103C000028461FF0CFFFA38B03F007039846022B33
:103C100016D0012B11D06FF0850817E0224C9423A9
:103C200022462249224825F09EF82946214825F0BF
:103C30009AF89421204625F08FF86FF0040805E0EB
:103C4000E38B73B1013B9BB2E383BBB128461FF00A
:103C500099FFC8B187F31188BFF36F8F4046BDE865
:103C6000F081154C40F2EF1322461449104825F01C
:103C70007AF840F2EF11204625F06EF83246022124
:103C80002046FFF7F5FCE9E7074CC22322460C4922
:103C9000074825F068F829460A4825F064F8C2214B
:103CA000204625F059F800BF68EB0200C8EB02007F
:103CB0006CDF0200E0EB020070EA0200F8EB0200A9
:103CC00098EB0200B0EB020010B50346426802F028
:103CD00003028160022A11D0032A0CD0012A10D0DD
:103CE0000C4C452322460C490C4825F03CF8452154
:103CF000204625F031F80468002004E00068002424
:103D000001E00024204600225A6008B124F0AEF9F8
:103D1000204610BD08EC020030E102006CDF02001A
:103D200084460846012226E09CF8003043F0040354
:103D30008CF80030F2B101301CE09CF8003043F008
:103D400008038CF80030F5E79CF8003043F01003CE
:103D50008CF80030EEE79CF8003043F020038CF83C
:103D60000030E7E79CF8003043F040038CF8003067
:103D7000E0E7002242B30378203B102BF9D801A1E1
:103D800051F823F0493D0000733D0000733D0000F1
:103D9000573D0000733D0000733D0000733D00007F
:103DA000733D0000733D0000733D0000733D000053
:103DB0003B3D0000733D0000293D0000733D0000C5
:103DC000733D0000653D00009CF8003003F04403A3
:103DD000442B00D070479CF800306FF386138CF8AA
:103DE0000030F7E72DE9F04F91B006460D469146B9
:103DF0000393002499F80000002800F0B9822528D8
:103E000008D009F101092946B0470028C0F2B18263
:103E10000134EFE700230493059306930793089377
:103E20000993494606A824F098FE02909DF819309F
:103E300013F0010F00F09780039B1A1D03921F6877
:103E4000002FC0F288809DF8193013F0040F00F0A5
:103E50009C80039B1A1D0392D3F800A0BAF1000FB7
:103E6000C0F28A800023079308939DF81A3003F06C
:103E700007039DF81910C1F3C301012B00F08E80D8
:103E8000022B00F0D380042B00F02481032B00F0E0
:103E90003B819DF8188018F0030B40F03B819DF8A2
:103EA0001B30253B532B00F2CA81DFE813F04001A1
:103EB000C801C801C801C801C801C801C801C801BA
:103EC000C801C801C801C801C801C801C801C801AA
:103ED000C801C801C801C801C801C801C801C8019A
:103EE000C801C801C801C801C801C801C801C8018A
:103EF000C801C801C801C801C801C801C801C8017A
:103F0000C801C801C801C801C801C801C801C80169
:103F1000C801C8018101C801C801C801C801C801A0
:103F2000C801C801C801C801C8015E016701C80114
:103F3000C801C801C8016701C801C801C801C8019A
:103F4000BD018101A101C801C8014D01C801810164
:103F5000C801C80181019DF8183043F004038DF8B1
:103F600018307F426FE79DF91830002B02DB4FF0CD
:103F7000FF3768E7079F66E79DF819306FF3410345
:103F80008DF819304FF0FF3A6CE713F0020F02D0B2
:103F9000DDF820A066E74FF0FF3A63E7CB1E042B65
:103FA00004D8DFE803F00B1D29353500039B1A1DEB
:103FB00003921B68DA170493059206E0039B1A1D0F
:103FC00003921B68DA1704930592012928D002296D
:103FD0007FF45FAFBDF91030DA170493059258E70C
:103FE000039B073323F0070303F108020392D3E98D
:103FF0000023CDE90423E8E7039B073323F00703FD
:1040000003F108020392D3E90023CDE90423DCE79E
:10401000039B1A1D03921B68DA1704930592D4E7D9
:104020009DF91030DA170493059232E7CB1E042B6A
:1040300004D8DFE803F00B1F35414100039B1A1D34
:1040400003921B680493002305931EE09DF81B3028
:10405000632B07D0039B1A1D03921B680493002354
:10406000059312E0039B1A1D03921B68049300231F
:1040700005930AE0039B073323F0070303F10802CB
:104080000392D3E90023CDE9042301291CD002299E
:104090007FF4FFAEBDF81030049300230593F8E6DB
:1040A000039B073323F0070303F108020392D3E9CC
:1040B0000023CDE90423E8E7039B1A1D03921B6844
:1040C000049300230593E0E79DF810300493002348
:1040D0000593DEE608290BD0039B073323F0070383
:1040E00003F108020392D3E90023CDE90423D0E6CB
:1040F000039B073323F0070303F108020392D3E97C
:104100000023CDE90423C4E6039B1A1D03921B6818
:104110000493BEE6029F3B464A462946304624F0B9
:10412000C2FD0028C0F225810444B94662E6294652
:104130002520B0470028C0F21C810134D8460DF17B
:104140003E0A4FF000097FE0DDF81090BAF1000F51
:1041500007DB5146484625F031FB09EB000AD846FB
:1041600072E0484625F021FBF7E7049B8DF82830E4
:10417000D8460DF1290A0DF1280965E018F0080F5D
:1041800005D118F0100804D04FF0200801E04FF0DE
:104190002B08049A059B002B02DB0492059308E090
:1041A000524263EB4303049205934FF02D0800E065
:1041B000D8460DF13E0300930AAB06AADDE90401DF
:1041C00024F002FD8146BAF1000F6CDB0DF13E03D5
:1041D000A3EB09039DF818206FF386128DF81820C1
:1041E0009A4563D9AAEB030307930DF13E0A2BE02E
:1041F000049828B9D846DFF880A1AAF1050923E080
:104200000DF13E0300930AAB06AA002124F0DCFC6A
:1042100081469DF81A3043F010038DF81A30782348
:104220008DF81B30D846CEE72246049906A824F024
:104230001BFDD8460DF13E0A4FF0000904E0D846B8
:104240000DF13E0A4FF00009B9F1000F00F08D802A
:10425000AAEB0903B8F1000F00D001339DF81A2032
:1042600012F0100F25D0023307990B4412F0400FC3
:1042700001D0089A1344002F31DDFF1A9DF8183041
:1042800013F0040F2BD113F0400F17D0B8F1000F2B
:1042900017D029464046B04700286ADB0134D8468B
:1042A0004FF0300B0FE00DF13E0ACDE70DF13E0A65
:1042B000CAE712F0080FD7D00133D5E74FF0200B33
:1042C00001E04FF0300B3B465F1E002B07DD294617
:1042D0005846B04700284CDB01343B46F4E7B8F1C0
:1042E000000F05D029464046B047002841DB013485
:1042F0009DF81A30C3F30012C3F3C0031A4305D06C
:1043000029463020B047002833DB01349DF81A30AD
:1043100013F0100F06D029469DF81B00B047002867
:1043200027DB0134079B03F1FF38002B07DD29460B
:104330003020B04700281CDB01344346F3E75346E6
:104340004A462946304624F0AEFC002811DB0444DE
:10435000002F07DD29462020B047002809DB013463
:10436000013FF5E7DDF8089044E5DDF8089041E508
:10437000204611B0BDE8F08F31EC02002DE9F0418C
:1043800082B080460E46154600272A4601A94046BF
:1043900024F0A3FC044602463146019825F02AFA8F
:1043A000274426442D1B01D0002CEED1394640462F
:1043B00024F0B4FC18B9384602B0BDE8F081054CD1
:1043C000492322460449054824F0CDFC49212046D2
:1043D00024F0C2FC34EC02005CEC02006CDF020052
:1043E00038B504460D462022002125F032FAEB684C
:1043F000E361AB68A3612B6823626B686362002290
:10440000A2622A6922612BB1591E0B4202D142F0ED
:104410000102226104F12C000122002129F032F86E
:1044200000B938BD054C2E2322460549054824F025
:104430009AFC2E21204624F08FFC00BF68EC02007D
:104440005CEC02006CDF02002DE9F04F87B00292B5
:104450009B46436A013B8B42C0F0DD80054688469F
:104460004FF00009CA4630E06E4C942322466E4954
:104470006E4824F078FC31466D4824F074FC942199
:10448000204624F069FC6A6A013A13402B6000243C
:1044900030461FF077FB002800F0AB8087F31188CF
:1044A000BFF36F8F74B1B9F1000F0BD09DF81330CB
:1044B00043B1AB69002B00F0AB80494628469847D2
:1044C0004FF00009002C00F0A88005F114064FF011
:1044D0002003EFF3118783F31288BFF36F8F0197E7
:1044E00030461FF03FFB0028BED030461FF05AFB7D
:1044F00005A9284624F045FC04460599414519D3F1
:104500002B6A2A6803EB820A13F822106FF300016A
:1045100003F82210C9B26FF3410103F822102B688F
:1045200043442A6912F0010FADD16A6A9342ADD3B8
:104530009B1AABE7A8B9029B5BEA030303D028F000
:10454000C7FE039088B12A690DF11303C2F340023C
:104550000599284624F078FC8146041E18BF0124E2
:1045600096E7284624F047FC92E730461FF00AFB06
:1045700008B3019B83F31188BFF36F8F05F12C0003
:10458000029A5B4620F026FA01904FF02003EFF3E9
:10459000118783F31288BFF36F8F30461FF0E2FA62
:1045A0000446B8B130461FF0FDFA019B002B3FF4E2
:1045B0006FAF039C6CE71B4CC22322461D491B486E
:1045C00024F0D1FB31461C4824F0CDFBC22120460B
:1045D00024F0C2FB134C942322461349134824F0C1
:1045E000C2FB3146124824F0BEFB9421204624F041
:1045F000B3FB0C4CC22322460E490C4824F0B3FBFB
:1046000031460D4824F0AFFBC221204624F0A4FB24
:104610004FF0000956E74FF0000A504607B0BDE8DA
:10462000F08F00BF68EB0200C8EB02006CDF0200F5
:10463000E0EB020098EB0200B0EB02002DE9F04144
:1046400004460D46C36908469847804604F114069F
:104650004FF02003EFF3118783F31288BFF36F8FBE
:1046600030461FF07FFA90B130461FF09BFA2B784E
:1046700043F001032B70636803EB0800236913F018
:10468000010F13D1636A984213D3C01A11E0174C7B
:10469000942322461649174824F065FB31461648F4
:1046A00024F061FB9421204624F056FB636A013B11
:1046B00018406060204624F08BFB30461FF062FA01
:1046C00028B187F31188BFF36F8FBDE8F081074CE5
:1046D000C22322460949074824F045FB31460848D1
:1046E00024F041FBC221204624F036FB68EB020097
:1046F000C8EB02006CDF0200E0EB020098EB020066
:10470000B0EB02002DE9F04104464DE04E4C9423FD
:1047100022464E494E4824F026FB29464D4824F0B7
:1047200022FB9421204624F017FB9B1A55E051F8F8
:104730002200800867D15DE0616A01390B40A36007
:10474000E368034422B9626A934204D39B1A02E0ED
:10475000626A013A1340E3601BE011F8223043F033
:10476000020301F82230A768E369404698473844BD
:10477000236913F0010F04D1636A984204D3C01A6D
:1047800002E0636A013B1840A060002701E00027B7
:10479000B84628461FF0F6F9002842D086F3118863
:1047A000BFF36F8F002F4BD004F114054FF020039F
:1047B000EFF3118683F31288BFF36F8F28461FF043
:1047C000D1F907460028A1D028461FF0EBF9A268CE
:1047D00063689A42A9D9636A9B1A216A01EB82082D
:1047E000002BD4D011F8223013F0030316D0022B83
:1047F0009DD0002011F8223013F0010FADD110B977
:10480000E36940469847A3680344226912F0010215
:1048100092D1616A8B4292D35B1A90E70027B84627
:10482000B7E7094CC22322460B49094824F09BFAFA
:1048300029460A4824F097FAC221204624F08CFA2F
:104840004046BDE8F08100BF68EB0200C8EB020003
:104850006CDF0200E0EB020098EB0200B0EB02001C
:104860002DE9F04104460D46C36908469847804645
:1048700004F114064FF02003EFF3118783F312883D
:10488000BFF36F8F30461FF06DF9A8B130461FF0AF
:1048900089F92B786FF300032B70236913F0020F53
:1048A00019D0236AE26803EB8203AB4213D02B6872
:1048B00068F39F032B6021E01F4C942322461F497D
:1048C0001F4824F050FA31461E4824F04CFA942137
:1048D000204624F041FA2B786FF341032B70E368F4
:1048E0004344226912F0010F04D1626A934204D357
:1048F0009B1A02E0626A013A1340E36030461FF0FF
:1049000041F948B187F31188BFF36F8F04F12C0090
:1049100020F012F8BDE8F081074CC22322460A4974
:10492000074824F020FA3146084824F01CFAC22136
:10493000204624F011FA00BF68EB0200C8EB020029
:104940006CDF0200E0EB020098EB0200B0EB02002B
:104950001BF052BC10B143685879704710B5064C33
:104960004FF4997322460549054824F0FCF94FF4A9
:104970009971204624F0F0F9A0EC0200D8EC020076
:104980006CDF020010B520B10268D26802B1904716
:1049900010BD054C8A2322460449054824F0E3F95A
:1049A0008A21204624F0D8F9A0EC0200D8EC0200BD
:1049B0006CDF020010B520B10268126962B1904745
:1049C00010BD064C9D2322460549064824F0CBF92C
:1049D0009D21204624F0C0F90020F1E7A0EC020060
:1049E000D8EC02006CDF020010B518B102689268C2
:1049F000904710BD054CCF2322460549054824F0B9
:104A0000B2F9CF21204624F0A7F900BFA0EC0200A4
:104A1000D8EC02006CDF020010B520B102685268C9
:104A200002B1904710BD054CC123224604490548F8
:104A300024F099F9C121204624F08EF9A0EC02005F
:104A4000D8EC02006CDF020010B520B171B1026831
:104A50001268904710BD0B4CB12322460A490B48FF
:104A600024F081F9B121204624F076F9054CB223D7
:104A700022460749054824F076F9B221204624F061
:104A80006BF900BFA0EC0200D8EC02006CDF020062
:104A9000F0EC020038B50546144C00E01034144B1D
:104AA0009C4212D8124B9C421FD22046FFF752FF65
:104AB0000028F3D02946204624F070FA0028EDD0D3
:104AC00029462046FFF7C0FFE8E70A4C40F2C11331
:104AD00022460949094824F046F9094824F043F9D7
:104AE00040F2C111204624F037F938BD24DE02001F
:104AF00034DE020004ED020034ED02006CDF02003F
:104B000058ED020010B530B10346006884690CB15D
:104B10001846A04710BD064C40F2611322460549D5
:104B2000054824F020F940F26111204624F014F9E0
:104B3000A0EC0200D8EC02006CDF020070B5064663
:104B40000D460F4C05E02A4631462046FFF7DAFFB6
:104B500010340C4B9C4203D80A4B9C42F3D370BDDB
:104B6000094C40F23B3322460849094824F0FBF83F
:104B7000084824F0F8F840F23B31204624F0ECF8E5
:104B800024DE020034DE020004ED020034ED0200F7
:104B90006CDF020058ED02002DE9F04107460546A2
:104BA000EDB195FAA5F6B6FA86F60E4C04EB0614AE
:104BB0000123B3406FEA030825EA0305237B002B9A
:104BC000EED02046FFF7F6FE0028E9D107EA0807F5
:104BD000636804221968204600F084FBE0E7384649
:104BE000BDE8F08124DE02002DE9F041314B324A6C
:104BF0009B1A9F2B12D880460F46304BBFF35B8F1A
:104C000053E8005F6A1C43E800210029F8D1BFF394
:104C10005B8F002D4AD1284C002614E0284C40F22E
:104C2000151322462749284824F09DF840F2151113
:104C3000204624F091F8636804221968204600F0A9
:104C400051FB013610341B4B9C4211D8194B9C422E
:104C50001ED2237B002BF5D02046FFF793FE204683
:104C6000FFF7A8FE0028E6D00123B3401D43E8E784
:104C7000134C4FF4917322461449134824F073F8EF
:104C8000134824F070F84FF49171204624F064F832
:104C9000B8F1000F0BD055B12846FFF77DFF054650
:104CA000002FF8D00A2024F07FF9F4E700252846E9
:104CB000BDE8F08134DE020024DE0200282000205E
:104CC00004ED020078ED02006CDF020034ED02001A
:104CD00058ED020008B5064B186018B1054B1B686B
:104CE000092B00DC08BD04481FF026FEFAE700BFD0
:104CF0001C200020242000207C0C002008B5024845
:104D00001FF01AFE08BD00BF7C0C002030B589B032
:104D100000220F490F4828F044FD0F4D00220023C8
:104D2000CDE90623002404940E23039302940194F6
:104D300000940A4B4FF40062094928461FF06CF8B2
:104D4000084928461EF0E6FE204609B030BD00BFE7
:104D5000FD4C000088140020B80F0020995100007D
:104D6000C04F00209CED0200014B53F8200070471B
:104D7000D4ED020048B108B5054A1060054B196032
:104D8000084600F0DFFD002008BD6FF015007047F9
:104D9000300400201820002008B5054B1B781BB1FB
:104DA000034B01221A7008BD02481FF0C5FDF7E74A
:104DB000364B00207C0C00200D4BBFF35B8F53E87B
:104DC000001F013143E80012002AF8D1BFF35B8FC6
:104DD00000B97047074BBFF35B8F53E8001F0139E1
:104DE00043E80012002AF8D1BFF35B8FF1E700BF60
:104DF0002020002024200020064B00200146BFF385
:104E00005B8F53E8000F43E80012002AF9D1BFF38B
:104E10005B8F70472020002038B5FFF7EDFF054677
:104E2000114C00E01034114B9C420CD80F4B9C42AB
:104E300019D22046FFF78EFD0028F3D029462046E0
:104E4000FFF7EAFDEEE70A4C40F2CD13224609498E
:104E5000094823F088FF094823F085FF40F2CD116F
:104E6000204623F079FF38BD24DE020034DE020044
:104E700004ED020034ED02006CDF020058ED020088
:104E8000034B18680028D4BF00200120704700BFE2
:104E90002020002010B5044C04492046FFF7A0FA5A
:104EA000034B1C6010BD00BF380B0020C0ED02009A
:104EB0001420002008B50023054A1370054A13602A
:104EC0004FF400410448FFF755FFFFF7E3FF08BD2B
:104ED000374B002020200020A18F020008B501469A
:104EE000014824F077F808BD380B002008B50248C7
:104EF000FFF708FC08BD00BF380B002008B50146CD
:104F0000024B186824F06CF808BD00BF1420002084
:104F100008B5024824F068F808BD00BF380B00202F
:104F200010B582B000220023CDE90023284B187869
:104F300008B902B010BD684624F079F8044688B17B
:104F4000244BBFF35B8F53E8001F013943E8001285
:104F5000002AF8D1BFF35B8F2046FFF79BFD204668
:104F6000FFF7CCFFFFF78CFF58B91B4A1368516855
:104F700013F57A7341F1000113605160FFF7C8FF28
:104F8000D7E728F0BFFB4A0142EAD06243011B1A6F
:104F900062EB0102920042EA93729B001B1842EB03
:104FA0000102D20042EA5372C3F3103343EA424390
:104FB000D20B0948016840685B1A62EB000240F2BC
:104FC000E9318B4272F10002CFD3FFF725FFCCE726
:104FD000364B002024200020801400201D4B1B781D
:104FE00003B1704710B500210120FFF7FDFD1A4CF9
:104FF00000E01034194B9C420BD8184B9C4218D23D
:105000002046FFF7A7FC0028F3D02046FFF7ECFC72
:10501000EFE7134C4FF4C27322461249124823F0B3
:10502000A2FE124823F09FFE4FF4C271204623F0E7
:1050300093FEF921A1201CF035FDFFF771FF044616
:10504000F921A1201CF0E0FE002CF2D1014B01223D
:105050001A7010BD374B002024DE020034DE02003F
:1050600004ED020034ED02006CDF020058ED020096
:1050700030B583B0344BBFF35B8F53E8002F511C26
:1050800043E800100028F8D1BFF35B8F2F4B1B784B
:105090006BB92F4B1B6863B3002A4AD00A2A28D168
:1050A0002C4828F090FB2C481FF046FC21E04FF0E4
:1050B0002003EFF3118483F31288BFF36F8F274827
:1050C0001EF050FDB8B1254D28461EF06BFDF921AC
:1050D000A1201CF0E7FCFFF723FFF921A1201CF021
:1050E00093FE28461EF04EFDA0B184F31188BFF355
:1050F0006F8F03B030BD1A4C9423224619491A48C9
:1051000023F031FE1549194823F02DFE9421204645
:1051100023F022FE124CC22322461549124823F0E6
:1051200022FE2946134823F01EFEC221204623F00A
:1051300013FE00220023CDE900234FF40042002398
:10514000044822F047FBD4E724200020374B0020FE
:105150001C200020881400207C0C0020102000203F
:1051600068EB0200C8EB02006CDF0200E0EB02001B
:1051700098EB0200B0EB020010B50446044B1B682C
:105180009847A0602146034823F055FF10BD00BF9B
:1051900030040020380B00202DE9F041264A274B2F
:1051A0009B1A1B090ED000210846FFF71DFD804603
:1051B000A8B140F26766002721F078FDFFF78AFD6D
:1051C000002525E01E4C40F2473322461D491E486B
:1051D00023F0C9FD40F24731204623F0BDFD4FF0DA
:1051E000FF364FF0FF37E7E74046FFF7D5FC804634
:1051F00088B94FF0FF364FF0FF370CE0002108462A
:10520000FFF79CFC32463B4610481FF0E3FB254667
:10521000B8F1000FE8D1F921A1201CF043FCFFF701
:105220007FFE0446F921A1201CF0EEFD002CEED1FA
:10523000002DE3D12C46E5E724DE020034DE020037
:1052400004ED0200A4ED02006CDF02007C0C0020E3
:1052500010B143681971704710B5054CDE23224622
:105260000449054823F07FFDDE21204623F074FD2C
:10527000A0EC0200D8EC02006CDF020028B142680A
:105280001160436801225A71704710B5064C40F214
:10529000171322460549064823F065FD40F2171111
:1052A000204623F059FD00BFA0EC0200D8EC02001C
:1052B0006CDF02000248034BC01AC008704700BFF1
:1052C00024DE0200FCDC020010B50C46FFF7F2FF02
:1052D000A04203D9024B53F8340010BD0020FCE774
:1052E000FCDC020070B504460D461646074BC31A97
:1052F0001B110133D9B2FFF7ABFF63689E712946DA
:105300002046FFF7BBFFFFF747FD70BD24DE02001C
:1053100000B589B0059206930023079362B1074A4E
:105320000C9B02930B9B01930A9B009305ABFDF72B
:10533000BDFC09B05DF804FB0022F1E747900200D4
:105340002DE9F0478AB005461E460F46C1F34924B1
:10535000002C38D09046002207920892099204232C
:10536000029305AB01930A23009307AB2146404605
:10537000FDF79CFC60F35227C0F30909C7F3CB414A
:105380004944173121F007018808FFF7A7FD82463D
:1053900018B30423029305AB01930A2300934B46F1
:1053A00000F1100221464046FFF7B2FF002814DA50
:1053B0000E4C492322460E490E4823F0D4FC4921C5
:1053C000204623F0C9FCC1F3CB410C44173424F030
:1053D0000704A008FFF782FD824633463A46294675
:1053E000504623F046FE0AB0BDE8F08740EE0200CA
:1053F0006CEE02006CDF02002DE9F04F85B08046B4
:105400000D4617461E46DDF838A0DDF84090B9F18C
:10541000000F47D0119B039300934B460F9A102126
:105420000020FDF7AFF9031E31DB9B4603EB0A00BA
:10543000173020F0070000246FF300046FF34104DD
:105440006FF3820468F3C50467F3881463F352248E
:105450006AF3DE446FF3DF748008FFF73FFD074611
:1054600060B11030B9F1000F08D0119B00934B468A
:105470000F9A5946FDF786F9002815DB3346224678
:105480002946384623F0F5FD05B0BDE8F08F0C4CF9
:10549000682322460B490C4823F065FC682120460E
:1054A00023F05AFC0023C0E7054C8223224605491D
:1054B000054823F058FC8221204623F04DFC00BF14
:1054C00040EE020078EE02006CDF02000EB400B580
:1054D00084B0014605AB53F8042B039300200090E1
:1054E0000348FEF77FFC04B05DF804EB03B070479F
:1054F0007157000030B585B011F0440F05D01A4B3C
:105500001C6834B9002005B030BD1849FFF7DEFF34
:10551000F9E7174B1968B2FBF1F1B1FBF4FC154A3E
:10552000A2FB0C32D20A4FF4616E0EFB12CE124B6C
:10553000A3FB0E535B0904FB1C114FF47A7C0CFB9C
:1055400001F1B1FBF4F504FB15110CFB01F1B1FB0A
:10555000F4F102910195C3EB0311AEEB81010091CF
:105560000649FFF7B3FFCEE73020002084EE0200AB
:105570002C200020C5B3A2918988888890EE020073
:1055800061B108B52AB1064A52F8232012B9054A7A
:1055900000E0044A0449FFF799FF08BD704700BFC7
:1055A0009CEF0200ACEE0200B4EE02002DE9F041E7
:1055B000054690461E46069F81B900242EB132460C
:1055C00010492846FFF782FF0444B7B1B8F1000F35
:1055D0000DD0079B042B13D00B4909E00B4B079A06
:1055E00053F822200A49FFF771FF0446E6E706490F
:1055F0003A462846FFF76AFF04442046BDE8F0819A
:105600000449F5E7CCEE0200BCEE0200B0EF020068
:10561000C4EE0200B8EE02002DE9F04F85B0054659
:105620000C46164603939DF8408001F0020B01F0F2
:10563000010AC1F3C00923F004FDD8B102461249A2
:105640002846FFF743FF0746BBF1000F14D142463F
:105650005146284623F03AFDCDF804800F9B009375
:105660000E9B324649462846FFF7A0FF384405B056
:10567000BDE8F08F0027E7E7039A21462846FFF7A9
:1056800039FF0744E3E700BFD0EE020011F0100F2E
:105690000BD108B511F0200F03D00449FFF716FF16
:1056A00008BD0349FFF712FFFAE77047D042030035
:1056B000F8E302002DE9F04105460F4616469846EC
:1056C0000699FFF7E3FF0024444505DA23492846FD
:1056D000FFF7FCFE0134F7E7002409E01F492846E4
:1056E000FFF7F4FE0BE01E492846FFF7EFFE0134FA
:1056F0000F2C0CDC002C02DD14F0070FEED0B442AE
:10570000F1D23A5D17492846FFF7E0FEEFE7164968
:105710002846FFF7DBFE002409E010492846FFF782
:10572000D5FE0BE011492846FFF7D0FE01340F2CBF
:1057300012DC002C02DD14F0070FEED0B44206D2CA
:105740003A5DA2F120035E2BECD92E22EAE7034951
:105750002846FFF7BBFEE9E7BDE8F081C8EE02008E
:10576000DCEE0200D4EE0200E0EE0200E4EE020005
:1057700038B505460C464B681A68CB689A4214D077
:105780006368BFF35B8F53E8002F511C43E80010A0
:105790000028F8D1BFF35B8FA3689D5463681A6833
:1057A000E3689A4205D8002038BD084623F0C1FCC2
:1057B000E6E7054C792322460449054823F0D3FA4D
:1057C0007921204623F0C8FAE8EE020018EF020023
:1057D0006CDF02002DE9F04184B004469DF82850AA
:1057E0000B9F0D9EA5B9012B1DD01F484FF000083F
:1057F00037B13B4622461D4922F0B0FD002816DB9A
:1058000016BB55BB204623F094FC04B0BDE8F081E4
:105810000295019300920B4600220E99FFF7FCFEC1
:1058200080461348E4E712484FF00008E0E7114CC7
:105830004FF4007322461049104823F094FA4FF4B5
:105840000071204623F088FA0E9B009343463246AF
:105850000C99204623F052FCD3E72A460E992046A5
:1058600023F040FCCEE700BF4D910200BD90020046
:1058700071570000E8EE020048EF02006CDF020002
:105880002DE9F04186B005460C461746D1F8088050
:105890000E88C6F382160878C0F3C2004B6833B195
:1058A000114A9B1A43F3CF01002918DA002322463C
:1058B00052F8101BC1F349216088C0F3CB00541883
:1058C00001B90022049703900294019200960022ED
:1058D00041462846FFF77EFF06B0BDE8F081FFF79E
:1058E000F3FC0346E3E700BFFCDC020070B582B0C6
:1058F0000446056842F20F738B4228BF0B460E4ADE
:105900000521684622F0ADFD064663685B680B2200
:105910000A49284623F0C5FB63685B68324669463E
:10592000284623F0BEFB63685B681B2204492846B7
:1059300023F0B7FB02B070BDC0E2020070EF0200BE
:1059400054EF0200074B01221A6004E04008054AA8
:1059500013685B001360044B9842F7D8034B186040
:10596000704700BF2C20002040420F003020002054
:10597000034B01221A70034B034A1A60704700BFA1
:10598000384B00205C20002060200020014B196073
:10599000002070474820002008B518B9074B0022A6
:1059A0001A7008BD064B1B7823B141F2883027F0EE
:1059B000ADFEF6E7052023F0D8FBF2E7384B0020D8
:1059C000394B002038B504460A4B01221A700A4BA5
:1059D0001B782BB938BD651E2046FFF7DDFF2C462E
:1059E00000201BF0E1FD0028F4D0024B1B78002BB7
:1059F000F1D1EFE7384B0020394B0020F8B50646CF
:105A00000D4604270DE02A46314600201BF032FDEA
:105A1000044614E03846FFF7D5FFDCB9114B1B787C
:105A2000C3B1114B1B78002BEDD11BF03BFE2A4676
:105A3000314600201BF01EFD04461BF03FFE002CEB
:105A4000E8D1084B1B78002BE7D0013F3846FFF721
:105A5000A3FFE2E714B9034B1B7803B92C46204699
:105A6000F8BD00BF384B0020394B002008B5034B70
:105A700001221A70024823F05CFB08BD394B00205C
:105A8000F0EF020008B50248FFF730FF08BD00BF85
:105A9000F0EF020010B50C46044B1868FFF764F9EC
:105AA00003460F2221460248984710BD4820002097
:105AB000F0EF020008B5064B23B14178007823F0DF
:105AC00000FF08BD002383F31188BFF36F8FF8E751
:105AD000C398020070B505464FF02003EFF311861E
